{
  "_format": "hh-sol-artifact-1",
  "contractName": "PresaleExclusive",
  "sourceName": "contracts/PresaleExclusive.sol",
  "abi": [
    {
      "inputs": [],
      "stateMutability": "nonpayable",
      "type": "constructor"
    },
    {
      "anonymous": false,
      "inputs": [
        {
          "indexed": true,
          "internalType": "address",
          "name": "owner",
          "type": "address"
        },
        {
          "indexed": true,
          "internalType": "address",
          "name": "approved",
          "type": "address"
        },
        {
          "indexed": true,
          "internalType": "uint256",
          "name": "tokenId",
          "type": "uint256"
        }
      ],
      "name": "Approval",
      "type": "event"
    },
    {
      "anonymous": false,
      "inputs": [
        {
          "indexed": true,
          "internalType": "address",
          "name": "owner",
          "type": "address"
        },
        {
          "indexed": true,
          "internalType": "address",
          "name": "operator",
          "type": "address"
        },
        {
          "indexed": false,
          "internalType": "bool",
          "name": "approved",
          "type": "bool"
        }
      ],
      "name": "ApprovalForAll",
      "type": "event"
    },
    {
      "anonymous": false,
      "inputs": [
        {
          "indexed": true,
          "internalType": "address",
          "name": "from",
          "type": "address"
        },
        {
          "indexed": true,
          "internalType": "address",
          "name": "to",
          "type": "address"
        },
        {
          "indexed": true,
          "internalType": "uint256",
          "name": "tokenId",
          "type": "uint256"
        }
      ],
      "name": "Transfer",
      "type": "event"
    },
    {
      "inputs": [
        {
          "internalType": "address",
          "name": "to",
          "type": "address"
        },
        {
          "internalType": "uint256",
          "name": "tokenId",
          "type": "uint256"
        }
      ],
      "name": "approve",
      "outputs": [],
      "stateMutability": "nonpayable",
      "type": "function"
    },
    {
      "inputs": [
        {
          "internalType": "address",
          "name": "owner",
          "type": "address"
        }
      ],
      "name": "balanceOf",
      "outputs": [
        {
          "internalType": "uint256",
          "name": "",
          "type": "uint256"
        }
      ],
      "stateMutability": "view",
      "type": "function"
    },
    {
      "inputs": [
        {
          "internalType": "uint256",
          "name": "tokenId",
          "type": "uint256"
        }
      ],
      "name": "getApproved",
      "outputs": [
        {
          "internalType": "address",
          "name": "",
          "type": "address"
        }
      ],
      "stateMutability": "view",
      "type": "function"
    },
    {
      "inputs": [
        {
          "internalType": "address",
          "name": "owner",
          "type": "address"
        },
        {
          "internalType": "address",
          "name": "operator",
          "type": "address"
        }
      ],
      "name": "isApprovedForAll",
      "outputs": [
        {
          "internalType": "bool",
          "name": "",
          "type": "bool"
        }
      ],
      "stateMutability": "view",
      "type": "function"
    },
    {
      "inputs": [
        {
          "internalType": "address",
          "name": "_purchaser",
          "type": "address"
        }
      ],
      "name": "isEligible",
      "outputs": [
        {
          "internalType": "bool",
          "name": "",
          "type": "bool"
        }
      ],
      "stateMutability": "view",
      "type": "function"
    },
    {
      "inputs": [],
      "name": "mintToken",
      "outputs": [
        {
          "internalType": "uint256",
          "name": "",
          "type": "uint256"
        }
      ],
      "stateMutability": "nonpayable",
      "type": "function"
    },
    {
      "inputs": [
        {
          "internalType": "address",
          "name": "",
          "type": "address"
        }
      ],
      "name": "minted",
      "outputs": [
        {
          "internalType": "bool",
          "name": "",
          "type": "bool"
        }
      ],
      "stateMutability": "view",
      "type": "function"
    },
    {
      "inputs": [],
      "name": "name",
      "outputs": [
        {
          "internalType": "string",
          "name": "",
          "type": "string"
        }
      ],
      "stateMutability": "view",
      "type": "function"
    },
    {
      "inputs": [
        {
          "internalType": "uint256",
          "name": "tokenId",
          "type": "uint256"
        }
      ],
      "name": "ownerOf",
      "outputs": [
        {
          "internalType": "address",
          "name": "",
          "type": "address"
        }
      ],
      "stateMutability": "view",
      "type": "function"
    },
    {
      "inputs": [],
      "name": "pinksalePresaleAddress",
      "outputs": [
        {
          "internalType": "address",
          "name": "",
          "type": "address"
        }
      ],
      "stateMutability": "view",
      "type": "function"
    },
    {
      "inputs": [
        {
          "internalType": "address",
          "name": "from",
          "type": "address"
        },
        {
          "internalType": "address",
          "name": "to",
          "type": "address"
        },
        {
          "internalType": "uint256",
          "name": "tokenId",
          "type": "uint256"
        }
      ],
      "name": "safeTransferFrom",
      "outputs": [],
      "stateMutability": "nonpayable",
      "type": "function"
    },
    {
      "inputs": [
        {
          "internalType": "address",
          "name": "from",
          "type": "address"
        },
        {
          "internalType": "address",
          "name": "to",
          "type": "address"
        },
        {
          "internalType": "uint256",
          "name": "tokenId",
          "type": "uint256"
        },
        {
          "internalType": "bytes",
          "name": "_data",
          "type": "bytes"
        }
      ],
      "name": "safeTransferFrom",
      "outputs": [],
      "stateMutability": "nonpayable",
      "type": "function"
    },
    {
      "inputs": [
        {
          "internalType": "address",
          "name": "operator",
          "type": "address"
        },
        {
          "internalType": "bool",
          "name": "approved",
          "type": "bool"
        }
      ],
      "name": "setApprovalForAll",
      "outputs": [],
      "stateMutability": "nonpayable",
      "type": "function"
    },
    {
      "inputs": [
        {
          "internalType": "bytes4",
          "name": "interfaceId",
          "type": "bytes4"
        }
      ],
      "name": "supportsInterface",
      "outputs": [
        {
          "internalType": "bool",
          "name": "",
          "type": "bool"
        }
      ],
      "stateMutability": "view",
      "type": "function"
    },
    {
      "inputs": [],
      "name": "symbol",
      "outputs": [
        {
          "internalType": "string",
          "name": "",
          "type": "string"
        }
      ],
      "stateMutability": "view",
      "type": "function"
    },
    {
      "inputs": [
        {
          "internalType": "uint256",
          "name": "tokenId",
          "type": "uint256"
        }
      ],
      "name": "tokenURI",
      "outputs": [
        {
          "internalType": "string",
          "name": "",
          "type": "string"
        }
      ],
      "stateMutability": "view",
      "type": "function"
    },
    {
      "inputs": [
        {
          "internalType": "address",
          "name": "from",
          "type": "address"
        },
        {
          "internalType": "address",
          "name": "to",
          "type": "address"
        },
        {
          "internalType": "uint256",
          "name": "tokenId",
          "type": "uint256"
        }
      ],
      "name": "transferFrom",
      "outputs": [],
      "stateMutability": "nonpayable",
      "type": "function"
    }
  ],
  "bytecode": "0x6080604052600780546001600160a01b031916734c45918ea5bad138e66edd02ef6ae87af55e58301790553480156200003757600080fd5b50604080518082018252601c81527f506f6f6c2050617274792050726573616c65204578636c7573697665000000006020808301918252835180850190945260048452635050504560e01b9084015281519192916200009991600091620000b8565b508051620000af906001906020840190620000b8565b5050506200019b565b828054620000c6906200015e565b90600052602060002090601f016020900481019282620000ea576000855562000135565b82601f106200010557805160ff191683800117855562000135565b8280016001018555821562000135579182015b828111156200013557825182559160200191906001019062000118565b506200014392915062000147565b5090565b5b8082111562000143576000815560010162000148565b600181811c908216806200017357607f821691505b602082108114156200019557634e487b7160e01b600052602260045260246000fd5b50919050565b6113a480620001ab6000396000f3fe608060405234801561001057600080fd5b50600436106100db5760003560e01c806301ffc9a7146100e057806306fdde0314610108578063081812fc1461011d578063095ea7b31461013d5780631e7269c5146101525780632004ffd91461017557806323b872dd1461018b57806342842e0e1461019e578063613b6f35146101b15780636352211e146101c457806366e305fd146101d757806370a08231146101ea57806395d89b41146101fd578063a22cb46514610205578063b88d4fde14610218578063c87b56dd1461022b578063e985e9c51461023e575b600080fd5b6100f36100ee3660046110a3565b610251565b60405190151581526020015b60405180910390f35b6101106102a3565b6040516100ff91906111a7565b61013061012b3660046110db565b610335565b6040516100ff9190611156565b61015061014b36600461107a565b6103c2565b005b6100f3610160366004610ede565b60086020526000908152604090205460ff1681565b61017d6104d3565b6040519081526020016100ff565b610150610199366004610f31565b6105f6565b6101506101ac366004610f31565b610627565b600754610130906001600160a01b031681565b6101306101d23660046110db565b610642565b6100f36101e5366004610ede565b6106b9565b61017d6101f8366004610ede565b6106c4565b61011061074b565b610150610213366004611040565b61075a565b610150610226366004610f6c565b61081b565b6101106102393660046110db565b610853565b6100f361024c366004610eff565b610874565b60006001600160e01b031982166380ac58cd60e01b148061028257506001600160e01b03198216635b5e139f60e01b145b8061029d57506301ffc9a760e01b6001600160e01b03198316145b92915050565b6060600080546102b29061128c565b80601f01602080910402602001604051908101604052809291908181526020018280546102de9061128c565b801561032b5780601f106103005761010080835404028352916020019161032b565b820191906000526020600020905b81548152906001019060200180831161030e57829003601f168201915b5050505050905090565b6000610340826108a2565b6103a65760405162461bcd60e51b815260206004820152602c60248201527f4552433732313a20617070726f76656420717565727920666f72206e6f6e657860448201526b34b9ba32b73a103a37b5b2b760a11b60648201526084015b60405180910390fd5b506000908152600460205260409020546001600160a01b031690565b60006103cd82610642565b9050806001600160a01b0316836001600160a01b0316141561043b5760405162461bcd60e51b815260206004820152602160248201527f4552433732313a20617070726f76616c20746f2063757272656e74206f776e656044820152603960f91b606482015260840161039d565b336001600160a01b038216148061045757506104578133610874565b6104c45760405162461bcd60e51b815260206004820152603860248201527f4552433732313a20617070726f76652063616c6c6572206973206e6f74206f776044820152771b995c881b9bdc88185c1c1c9bdd995908199bdc88185b1b60421b606482015260840161039d565b6104ce83836108bf565b505050565b60006104de3361092d565b61053f5760405162461bcd60e51b815260206004820152602c60248201527f596f7520617265206e6f7420656c696769626c6520666f72207468697320657860448201526b636c7573697665204e46542160a01b606482015260840161039d565b3360009081526008602052604090205460ff16156105b25760405162461bcd60e51b815260206004820152602a60248201527f54686973206164647265737320616c7265616479206d696e746564206578636c6044820152697573697665204e46542160b01b606482015260840161039d565b336000908152600860205260409020805460ff191660011790556105da600680546001019055565b60006105e560065490565b90506105f133826109be565b919050565b61060033826109dc565b61061c5760405162461bcd60e51b815260040161039d9061120c565b6104ce838383610aa6565b6104ce8383836040518060200160405280600081525061081b565b6000818152600260205260408120546001600160a01b03168061029d5760405162461bcd60e51b815260206004820152602960248201527f4552433732313a206f776e657220717565727920666f72206e6f6e657869737460448201526832b73a103a37b5b2b760b91b606482015260840161039d565b600061029d8261092d565b60006001600160a01b03821661072f5760405162461bcd60e51b815260206004820152602a60248201527f4552433732313a2062616c616e636520717565727920666f7220746865207a65604482015269726f206164647265737360b01b606482015260840161039d565b506001600160a01b031660009081526003602052604090205490565b6060600180546102b29061128c565b6001600160a01b0382163314156107af5760405162461bcd60e51b815260206004820152601960248201527822a9219b99189d1030b8383937bb32903a379031b0b63632b960391b604482015260640161039d565b3360008181526005602090815260408083206001600160a01b03871680855290835292819020805460ff191686151590811790915590519081529192917f17307eab39ab6107e8899845ad3d59bd9653f200f220920489ca2b5937696c31910160405180910390a35050565b61082533836109dc565b6108415760405162461bcd60e51b815260040161039d9061120c565b61084d84848484610c34565b50505050565b606060405180608001604052806042815260200161130d6042913992915050565b6001600160a01b03918216600090815260056020908152604080832093909416825291909152205460ff1690565b6000908152600260205260409020546001600160a01b0316151590565b600081815260046020526040902080546001600160a01b0319166001600160a01b03841690811790915581906108f482610642565b6001600160a01b03167f8c5be1e5ebec7d5bd14f71427d1e84f3dd0314c0f7b2291e5b200ac8c7c3b92560405160405180910390a45050565b600754604051636bc02f6760e11b81526000916001600160a01b03169063d7805ece9061095e908590600401611156565b60206040518083038186803b15801561097657600080fd5b505afa15801561098a573d6000803e3d6000fd5b505050506040513d601f19601f820116820180604052508101906109ae91906110f3565b670de0b6b3a76400001492915050565b6109d8828260405180602001604052806000815250610c67565b5050565b60006109e7826108a2565b610a485760405162461bcd60e51b815260206004820152602c60248201527f4552433732313a206f70657261746f7220717565727920666f72206e6f6e657860448201526b34b9ba32b73a103a37b5b2b760a11b606482015260840161039d565b6000610a5383610642565b9050806001600160a01b0316846001600160a01b03161480610a8e5750836001600160a01b0316610a8384610335565b6001600160a01b0316145b80610a9e5750610a9e8185610874565b949350505050565b826001600160a01b0316610ab982610642565b6001600160a01b031614610b215760405162461bcd60e51b815260206004820152602960248201527f4552433732313a207472616e73666572206f6620746f6b656e2074686174206960448201526839903737ba1037bbb760b91b606482015260840161039d565b6001600160a01b038216610b835760405162461bcd60e51b8152602060048201526024808201527f4552433732313a207472616e7366657220746f20746865207a65726f206164646044820152637265737360e01b606482015260840161039d565b610b8e6000826108bf565b6001600160a01b0383166000908152600360205260408120805460019290610bb7908490611275565b90915550506001600160a01b0382166000908152600360205260408120805460019290610be590849061125d565b909155505060008181526002602052604080822080546001600160a01b0319166001600160a01b03868116918217909255915184939187169160008051602061134f83398151915291a4505050565b610c3f848484610aa6565b610c4b84848484610c9a565b61084d5760405162461bcd60e51b815260040161039d906111ba565b610c718383610da7565b610c7e6000848484610c9a565b6104ce5760405162461bcd60e51b815260040161039d906111ba565b60006001600160a01b0384163b15610d9c57604051630a85bd0160e11b81526001600160a01b0385169063150b7a0290610cde90339089908890889060040161116a565b602060405180830381600087803b158015610cf857600080fd5b505af1925050508015610d28575060408051601f3d908101601f19168201909252610d25918101906110bf565b60015b610d82573d808015610d56576040519150601f19603f3d011682016040523d82523d6000602084013e610d5b565b606091505b508051610d7a5760405162461bcd60e51b815260040161039d906111ba565b805181602001fd5b6001600160e01b031916630a85bd0160e11b149050610a9e565b506001949350505050565b6001600160a01b038216610dfd5760405162461bcd60e51b815260206004820181905260248201527f4552433732313a206d696e7420746f20746865207a65726f2061646472657373604482015260640161039d565b610e06816108a2565b15610e525760405162461bcd60e51b815260206004820152601c60248201527b115490cdcc8c4e881d1bdad95b88185b1c9958591e481b5a5b9d195960221b604482015260640161039d565b6001600160a01b0382166000908152600360205260408120805460019290610e7b90849061125d565b909155505060008181526002602052604080822080546001600160a01b0319166001600160a01b038616908117909155905183929060008051602061134f833981519152908290a45050565b80356001600160a01b03811681146105f157600080fd5b600060208284031215610eef578081fd5b610ef882610ec7565b9392505050565b60008060408385031215610f11578081fd5b610f1a83610ec7565b9150610f2860208401610ec7565b90509250929050565b600080600060608486031215610f45578081fd5b610f4e84610ec7565b9250610f5c60208501610ec7565b9150604084013590509250925092565b60008060008060808587031215610f81578081fd5b610f8a85610ec7565b9350610f9860208601610ec7565b92506040850135915060608501356001600160401b0380821115610fba578283fd5b818701915087601f830112610fcd578283fd5b813581811115610fdf57610fdf6112dd565b604051601f8201601f19908116603f01168101908382118183101715611007576110076112dd565b816040528281528a602084870101111561101f578586fd5b82602086016020830137918201602001949094529598949750929550505050565b60008060408385031215611052578182fd5b61105b83610ec7565b91506020830135801515811461106f578182fd5b809150509250929050565b6000806040838503121561108c578182fd5b61109583610ec7565b946020939093013593505050565b6000602082840312156110b4578081fd5b8135610ef8816112f3565b6000602082840312156110d0578081fd5b8151610ef8816112f3565b6000602082840312156110ec578081fd5b5035919050565b600060208284031215611104578081fd5b5051919050565b60008151808452815b8181101561113057602081850181015186830182015201611114565b818111156111415782602083870101525b50601f01601f19169290920160200192915050565b6001600160a01b0391909116815260200190565b6001600160a01b038581168252841660208201526040810183905260806060820181905260009061119d9083018461110b565b9695505050505050565b602081526000610ef8602083018461110b565b60208082526032908201527f4552433732313a207472616e7366657220746f206e6f6e20455243373231526560408201527131b2b4bb32b91034b6b83632b6b2b73a32b960711b606082015260800190565b60208082526031908201527f4552433732313a207472616e736665722063616c6c6572206973206e6f74206f6040820152701ddb995c881b9bdc88185c1c1c9bdd9959607a1b606082015260800190565b60008219821115611270576112706112c7565b500190565b600082821015611287576112876112c7565b500390565b600181811c908216806112a057607f821691505b602082108114156112c157634e487b7160e01b600052602260045260246000fd5b50919050565b634e487b7160e01b600052601160045260246000fd5b634e487b7160e01b600052604160045260246000fd5b6001600160e01b03198116811461130957600080fd5b5056fe697066733a2f2f6261666b72656965686a656e657275727734767a726b65626d7665637872736865656176636667716e6a7a773672716c7a616e356a733771327669ddf252ad1be2c89b69c2b068fc378daa952ba7f163c4a11628f55a4df523b3efa26469706673582212204cef9a8453dbf4eabf0f93725d8311a6acaedef80f02eaaca3437855ccd2f26a64736f6c63430008040033",
  "linkReferences": {},
  "deployedLinkReferences": {}
}